S01700004176656C6162735F50726F6A6563742E7372656319
S11300000C942A000C943C000C943C000C943C008E
S11300100C943C000C943C000C943C000C943C006C
S11300200C943C000C943C000C943C000C943C005C
S11300300C943C000C943C000C943C000C943C004C
S11300400C943C000C943C000C943C000C943C003C
S11300500C943C0011241FBECFE5D8E0DEBFCDBF19
S113006020E0A0E6B0E001C01D92A036B207E1F79F
S11300700E94C2020C94DB070C940000CF93DF9320
S113008000D0CDB7DEB789836A838A81882309F0DB
S113009078C089818830C8F48BE390E02BE330E0AA
S11300A0F9012081622F2981222F30E0A9014770B4
S11300B0552721E030E002C0220F331F4A95E2F7B2
S11300C020952623FC0120835CC089818830E0F0E0
S11300D089818031C8F488E390E028E330E0F901B5
S11300E02081622F2981222F30E0A90147705527F2
S11300F021E030E002C0220F331F4A95E2F7209539
S11301002623FC0120833DC089818031E0F0898170
S11301108831C8F485E390E025E330E0F9012081DB
S1130120622F2981222F30E0A9014770552721E051
S113013030E002C0220F331F4A95E2F720952623B0
S1130140FC0120831EC089818831D8F089818032E6
S1130150C0F482E390E022E330E0F9012081622FD1
S11301602981222F30E0A9014770552721E030E092
S113017002C0220F331F4A95E2F720952623FC0183
S113018020838A81813009F075C089818830C0F468
S11301908BE390E02BE330E0F9012081622F298189
S11301A0222F30E0A9014770552721E030E002C03A
S11301B0220F331F4A95E2F7262BFC0120835AC0F5
S11301C089818830D8F089818031C0F488E390E057
S11301D028E330E0F9012081622F2981222F30E0C9
S11301E0A9014770552721E030E002C0220F331FD8
S11301F04A95E2F7262BFC0120833CC0898180319B
S1130200D8F089818831C0F485E390E025E330E0BB
S1130210F9012081622F2981222F30E0A901477042
S1130220552721E030E002C0220F331F4A95E2F740
S1130230262BFC0120831EC089818831D8F0898156
S11302408032C0F482E390E022E330E0F9012081BF
S1130250622F2981222F30E0A9014770552721E020
S113026030E002C0220F331F4A95E2F7262BFC012F
S1130270208300C000000F900F90DF91CF9108956C
S1130280CF93DF931F92CDB7DEB7898389818830FE
S1130290C0F48BE390E02BE330E0F9012081622F7E
S11302A02981222F30E0A9014770552721E030E051
S11302B002C0220F331F4A95E2F72627FC01208350
S11302C05AC089818830D8F089818031C0F488E3AC
S11302D090E028E330E0F9012081622F2981222F68
S11302E030E0A9014770552721E030E002C0220F19
S11302F0331F4A95E2F72627FC0120833CC08981FD
S11303008031D8F089818831C0F485E390E025E319
S113031030E0F9012081622F2981222F30E0A901E8
S11303204770552721E030E002C0220F331F4A9561
S1130330E2F72627FC0120831EC089818831D8F08A
S113034089818032C0F482E390E022E330E0F90155
S11303502081622F2981222F30E0A901477055277F
S113036021E030E002C0220F331F4A95E2F726272E
S1130370FC01208300C000000F90DF91CF9108950D
S1130380CF93DF9300D0CDB7DEB789836A838A81A8
S1130390882309F078C089818830C8F48AE390E022
S11303A02AE330E0F9012081622F2981222F30E0F5
S11303B0A9014770552721E030E002C0220F331F06
S11303C04A95E2F720952623FC0120835CC08981AD
S11303D08830E0F089818031C8F487E390E027E336
S11303E030E0F9012081622F2981222F30E0A90118
S11303F04770552721E030E002C0220F331F4A9591
S1130400E2F720952623FC0120833DC089818031B9
S1130410E0F089818831C8F484E390E024E330E09B
S1130420F9012081622F2981222F30E0A901477030
S1130430552721E030E002C0220F331F4A95E2F72E
S113044020952623FC0120831EC089818831D8F0A1
S113045089818032C0F481E390E021E330E0F90146
S11304602081622F2981222F30E0A901477055276E
S113047021E030E002C0220F331F4A95E2F72095B5
S11304802623FC0120838A81813009F075C089818B
S11304908830C0F48AE390E02AE330E0F901208157
S11304A0622F2981222F30E0A9014770552721E0CE
S11304B030E002C0220F331F4A95E2F7262BFC01DD
S11304C020835AC089818830D8F089818031C0F472
S11304D087E390E027E330E0F9012081622F29814E
S11304E0222F30E0A9014770552721E030E002C0F7
S11304F0220F331F4A95E2F7262BFC0120833CC0D0
S113050089818031D8F089818831C0F484E390E016
S113051024E330E0F9012081622F2981222F30E089
S1130520A9014770552721E030E002C0220F331F94
S11305304A95E2F7262BFC0120831EC0898188316D
S1130540D8F089818032C0F481E390E021E330E087
S1130550F9012081622F2981222F30E0A9014770FF
S1130560552721E030E002C0220F331F4A95E2F7FD
S1130570262BFC01208300C000000F900F90DF9118
S1130580CF910895CF93DF93CDB7DEB742E060E01B
S113059071E081E00E944C0361E08DE00E94C001A3
S11305A061E08DE00E943E0083E00E94F00260E082
S11305B08DE00E943E000E943C0368EB7BE080E0FB
S11305C090E00E9491070E942E0361E08DE00E945A
S11305D03E0068EB7BE080E090E00E949107E7CF6B
S11305E0CF93DF931F92CDB7DEB7898387E490E082
S11305F02FEEFC01208386E490E02FEEFC012083A3
S113060089E490E02FE7FC01208388E490E02FE761
S1130610FC01208321E042E060E070E089810E94D7
S1130620080561E08CE10E94C00161E08AE10E945A
S1130630C00161E08BE10E94C00160E08AE10E9498
S11306403E0061E08BE10E943E0060E08CE10E948C
S11306503E0000000F90DF91CF910895CF93DF9378
S1130660CDB7DEB78AE10E9440018BE10E944001D0
S11306700000DF91CF910895CF93DF93CDB7DEB71C
S113068061E08AE10E943E0061E08BE10E943E004D
S11306900000DF91CF910895CF93DF9300D000D075
S11306A0CDB7DEB789837B836A834C838A819B8140
S11306B08034910509F44AC08134910528F40097E7
S11306C069F0089739F196C0811521E0920709F481
S11306D059C08115944009F471C08CC083E590E041
S11306E023E530E0F90120812160FC01208383E5CA
S11306F090E023E530E0F90120812D7FFC01208387
S113070083E590E023E530E0F90120812B7FFC01B3
S113071020838CC083E590E023E530E0F90120815B
S11307202E7FFC01208383E590E023E530E0F9018E
S113073020812260FC01208383E590E023E530E002
S1130740F90120812B7FFC01208370C083E590E0B8
S113075023E530E0F90120812160FC01208383E559
S113076090E023E530E0F90120812260FC01208340
S113077083E590E023E530E0F90120812B7FFC0143
S1130780208354C083E590E023E530E0F901208123
S11307902E7FFC01208383E590E023E530E0F9011E
S11307A020812D7FFC01208383E590E023E530E068
S11307B0F90120812460FC01208338C083E590E0A6
S11307C023E530E0F90120812160FC01208383E5E9
S11307D090E023E530E0F90120812D7FFC012083A6
S11307E083E590E023E530E0F90120812460FC01F9
S11307F020831CC083E590E023E530E0F9012081EB
S11308002160FC01208383E590E023E530E0F901D9
S113081020812D7FFC01208383E590E023E530E0F7
S1130820F90120812B7FFC01208300008981882F1E
S113083090E08130910509F449C0823091051CF49F
S1130840892B41F088C08230910509F45FC0039779
S1130850C1F081C082E590E0FC01108283E590E064
S113086023E530E0F9012081277FFC01208383E523
S113087090E023E530E0F90120812E7FFC01208304
S11308806AC082E590E0FC0110828CE590E02FEFD5
S1130890FC01208383E590E023E530E0F901208129
S11308A02160FC01208383E590E023E530E0F90139
S11308B02081277FFC01208388E590E028E530E053
S11308C0F90120812260FC01208345C082E590E08B
S11308D0FC01108283E590E023E530E0F9012081FA
S11308E02E7FFC01208383E590E023E530E0F901CD
S11308F020812860FC01208388E590E028E530E031
S1130900F90120812260FC01208325C082E590E06A
S1130910FC0110828CE590E02FEFFC01208383E53D
S113092090E023E530E0F90120812160FC0120837F
S113093083E590E023E530E0F90120812860FC01A3
S1130940208388E590E028E530E0F90120812260E9
S1130950FC01208300008C81882F90E08130910578
S1130960B1F0823091051CF4892B39F040C08230FB
S1130970910599F10397F1F03AC083E590E023E5FE
S113098030E0F90120812F7CFC01208330C083E515
S113099090E023E530E0F90120812061FC0120830F
S11309A083E590E023E530E0F90120812F7DFC010F
S11309B020831DC083E590E023E530E0F901208128
S11309C02F7EFC01208383E590E023E530E0F901EC
S11309D020812062FC0120830AC083E590E023E5A6
S11309E030E0F90120812063FC012083000089E5C7
S11309F090E029E530E0F90120812260FC012083A8
S1130A0000000F900F900F900F90DF91CF910895F9
S1130A10CF93DF9300D000D01F92CDB7DEB7898388
S1130A207B836A834C832D838D81882309F05FC087
S1130A308C81882F90E081309105F9F08230910506
S1130A401CF4892B39F0B5C082309105E1F103978C
S1130A5039F1AFC08FE490E02FE430E0F901208158
S1130A602064FC0120838FE490E02FE430E0F9015E
S1130A7020812068FC0120839CC08FE490E02FE457
S1130A8030E0F90120812064FC0120838FE490E0B0
S1130A902FE430E0F90120812F77FC01208389C005
S1130AA08FE490E02FE430E0F90120812F7BFC01FA
S1130AB020838FE490E02FE430E0F9012081206866
S1130AC0FC01208376C08FE490E02FE430E0F9014C
S1130AD020812064FC0120838FE490E02FE430E047
S1130AE0F90120812068FC012083000062C08D810F
S1130AF0813009F05EC08C81882F90E081309105AF
S1130B00F9F0823091051CF4892B39F052C08230FF
S1130B109105E1F1039739F14CC08FE490E02FE4A3
S1130B2030E0F90120812061FC0120838FE490E012
S1130B302FE430E0F90120812062FC01208339C0D8
S1130B408FE490E02FE430E0F90120812061FC0182
S1130B5020838FE490E02FE430E0F90120812F7DA1
S1130B60FC01208326C08FE490E02FE430E0F901FB
S1130B7020812F7EFC0120838FE490E02FE430E07D
S1130B80F90120812062FC01208313C08FE490E0EE
S1130B902FE430E0F90120812061FC0120838FE4FF
S1130BA090E02FE430E0F90120812062FC012083F1
S1130BB000008A819B818034910509F44AC0813404
S1130BC0910528F4009769F0089739F196C08115CA
S1130BD0F1E09F0709F459C08115944009F471C0EC
S1130BE08CC08EE490E02EE430E0F9012081216095
S1130BF0FC0120838EE490E02EE430E0F9012081B2
S1130C002D7FFC0120838EE490E02EE430E0F90196
S1130C1020812B7FFC0120838CC08EE490E02EE4A5
S1130C2030E0F90120812E7FFC0120838EE490E0E6
S1130C302EE430E0F90120812260FC0120838EE45F
S1130C4090E02EE430E0F90120812B7FFC01208329
S1130C5070C08EE490E02EE430E0F9012081216040
S1130C60FC0120838EE490E02EE430E0F901208141
S1130C702260FC0120838EE490E02EE430E0F90150
S1130C8020812B7FFC01208354C08EE490E02EE46D
S1130C9030E0F90120812E7FFC0120838EE490E076
S1130CA02EE430E0F90120812D7FFC0120838EE4C5
S1130CB090E02EE430E0F90120812460FC012083DF
S1130CC038C08EE490E02EE430E0F9012081216008
S1130CD0FC0120838EE490E02EE430E0F9012081D1
S1130CE02D7FFC0120838EE490E02EE430E0F901B6
S1130CF020812460FC0120831CC08EE490E02EE45B
S1130D0030E0F90120812160FC0120838EE490E031
S1130D102EE430E0F90120812D7FFC0120838EE454
S1130D2090E02EE430E0F90120812B7FFC01208348
S1130D3000008981882F90E08130910509F465C015
S1130D40823091051CF4892B41F0D0C0823091058A
S1130D5009F49DC0039751F1C9C08CE290E0FC01F5
S1130D6010828FE490E02FE430E0F90120812E7F9F
S1130D70FC0120838FE490E02FE430E0F90120812E
S1130D802D7FFC0120838EE490E02EE430E0F90115
S1130D902081277FFC0120838EE490E02EE430E064
S1130DA0F90120812F7EFC012083A0C087E490E01C
S1130DB02FEFFC01208386E490E02FEFFC012083D9
S1130DC08FE490E02FE430E0F90120812E7FFC01D4
S1130DD020838FE490E02FE430E0F9012081226049
S1130DE0FC0120838EE490E02EE430E0F9012081C0
S1130DF0277FFC0120838EE490E02EE430E0F901AB
S1130E0020812061FC01208371C087E490E02FEFF2
S1130E10FC01208386E490E02FEFFC0120838FE423
S1130E2090E02FE430E0F90120812E7FFC01208343
S1130E308FE490E02FE430E0F90120812D7FFC0164
S1130E4020838EE490E02EE430E0F90120812860D4
S1130E50FC0120838EE490E02EE430E0F90120814F
S1130E602061FC01208388E590E028E530E0F90169
S1130E7020812061FC0120838BE490E02FEFFC01B2
S1130E8020838AE490E02FEFFC0120832FC087E4C5
S1130E9090E02FEFFC01208386E490E02FEFFC012B
S1130EA020838FE490E02FE430E0F90120812E7F4D
S1130EB0FC0120838FE490E02FE430E0F9012081ED
S1130EC02260FC0120838EE490E02EE430E0F901FE
S1130ED020812860FC0120838EE490E02EE430E041
S1130EE0F90120812061FC012083000089E590E064
S1130EF029E530E0F90120812061FC01208389E5A6
S1130F0090E029E530E0F90120812860FC0120838C
S1130F1000000F900F900F900F900F90DF91CF91E2
S1130F200895CF93DF9300D000D000D0CDB7DEB7C3
S1130F306B837C838D839E8382E590E0FC01108229
S1130F408CE590E02EE3FC0120831A8219821BC0F9
S1130F50000088E590E0FC018081882F90E0827099
S1130F60992795958795892BA1F388E590E028E545
S1130F7030E0F90120812260FC01208389819A817B
S1130F8001969A83898389819A819C0140E050E08B
S1130F908B819C81AD81BE81281739074A075B0785
S1130FA0B8F2000026960FB6F894DEBF0FBECDBF90
S10D0FB0DF91CF910895F894FFCF6C
S9030000FC
