S01700004176656C6162735F50726F6A6563742E7372656319
S11300000C942A000C943C000C943C000C94740254
S11300100C943C000C943C000C943C000C943C006C
S11300200C943C000C943C000C9442020C943C0054
S11300300C943C000C943C000C943C000C943C004C
S11300400C943C000C943C000C943C000C943C003C
S11300500C943C0011241FBECFE5D8E0DEBFCDBF19
S113006020E0A0E6B0E001C01D92A336B207E1F79C
S11300700E9490020C943A030C940000CF93DF93F7
S113008000D0CDB7DEB789836A838A81882309F0DB
S113009078C089818830C8F48BE390E02BE330E0AA
S11300A0F9012081622F2981222F30E0A9014770B4
S11300B0552721E030E002C0220F331F4A95E2F7B2
S11300C020952623FC0120835CC089818830E0F0E0
S11300D089818031C8F488E390E028E330E0F901B5
S11300E02081622F2981222F30E0A90147705527F2
S11300F021E030E002C0220F331F4A95E2F7209539
S11301002623FC0120833DC089818031E0F0898170
S11301108831C8F485E390E025E330E0F9012081DB
S1130120622F2981222F30E0A9014770552721E051
S113013030E002C0220F331F4A95E2F720952623B0
S1130140FC0120831EC089818831D8F089818032E6
S1130150C0F482E390E022E330E0F9012081622FD1
S11301602981222F30E0A9014770552721E030E092
S113017002C0220F331F4A95E2F720952623FC0183
S113018020838A81813009F075C089818830C0F468
S11301908BE390E02BE330E0F9012081622F298189
S11301A0222F30E0A9014770552721E030E002C03A
S11301B0220F331F4A95E2F7262BFC0120835AC0F5
S11301C089818830D8F089818031C0F488E390E057
S11301D028E330E0F9012081622F2981222F30E0C9
S11301E0A9014770552721E030E002C0220F331FD8
S11301F04A95E2F7262BFC0120833CC0898180319B
S1130200D8F089818831C0F485E390E025E330E0BB
S1130210F9012081622F2981222F30E0A901477042
S1130220552721E030E002C0220F331F4A95E2F740
S1130230262BFC0120831EC089818831D8F0898156
S11302408032C0F482E390E022E330E0F9012081BF
S1130250622F2981222F30E0A9014770552721E020
S113026030E002C0220F331F4A95E2F7262BFC012F
S1130270208300C000000F900F90DF91CF9108956C
S1130280CF93DF9300D0CDB7DEB789836A838A81A9
S1130290882309F078C089818830C8F48AE390E023
S11302A02AE330E0F9012081622F2981222F30E0F6
S11302B0A9014770552721E030E002C0220F331F07
S11302C04A95E2F720952623FC0120835CC08981AE
S11302D08830E0F089818031C8F487E390E027E337
S11302E030E0F9012081622F2981222F30E0A90119
S11302F04770552721E030E002C0220F331F4A9592
S1130300E2F720952623FC0120833DC089818031BA
S1130310E0F089818831C8F484E390E024E330E09C
S1130320F9012081622F2981222F30E0A901477031
S1130330552721E030E002C0220F331F4A95E2F72F
S113034020952623FC0120831EC089818831D8F0A2
S113035089818032C0F481E390E021E330E0F90147
S11303602081622F2981222F30E0A901477055276F
S113037021E030E002C0220F331F4A95E2F72095B6
S11303802623FC0120838A81813009F075C089818C
S11303908830C0F48AE390E02AE330E0F901208158
S11303A0622F2981222F30E0A9014770552721E0CF
S11303B030E002C0220F331F4A95E2F7262BFC01DE
S11303C020835AC089818830D8F089818031C0F473
S11303D087E390E027E330E0F9012081622F29814F
S11303E0222F30E0A9014770552721E030E002C0F8
S11303F0220F331F4A95E2F7262BFC0120833CC0D1
S113040089818031D8F089818831C0F484E390E017
S113041024E330E0F9012081622F2981222F30E08A
S1130420A9014770552721E030E002C0220F331F95
S11304304A95E2F7262BFC0120831EC0898188316E
S1130440D8F089818032C0F481E390E021E330E088
S1130450F9012081622F2981222F30E0A901477000
S1130460552721E030E002C0220F331F4A95E2F7FE
S1130470262BFC01208300C000000F900F90DF9119
S1130480CF9108951F920F9200905F000F92112454
S11304902F938F939F93CF93DF93CDB7DEB7809144
S11304A060009091610001969093610080936000D8
S11304B08091600090916100883E934049F480915E
S11304C062008F5F8093620010926100109260005E
S11304D00000DF91CF919F918F912F910F90009207
S11304E05F000F901F9018951F920F9200905F006D
S11304F00F9211248F93CF93DF93CDB7DEB781E0B2
S11305008093620010926100109260000000DF91FD
S1130510CF918F910F9000925F000F901F901895CC
S1130520CF93DF93CDB7DEB761E08DE00E94400149
S113053061E08EE00E94400161E08FE00E94400192
S113054060E08DE00E943E0060E08EE00E943E008C
S113055060E08FE00E943E008FE590E02FE530E000
S1130560F90120812068FC0120830E9416030E9467
S1130570F802209162008BEA289F812D1124982F84
S11305809695892F880F890F922F981B892F90E0B9
S11305908130910591F082309105E1F0892B39F594
S11305A061E08DE00E943E0060E08FE00E943E002A
S11305B060E08EE00E943E001AC060E08DE00E9480
S11305C03E0061E08FE00E943E0060E08EE00E9409
S11305D03E000DC060E08DE00E943E0060E08FE0D0
S11305E00E943E0061E08EE00E943E000000C1CF08
S11305F0CF93DF93CDB7DEB78BE590E02BE530E00A
S1130600F90120812062FC01208384E590E024E547
S113061030E0F90120812064FC01208360E082E065
S11306200E9440010000DF91CF910895CF93DF93A2
S1130630CDB7DEB782E590E0FC0110828CE590E056
S113064029EFFC01208388E590E022E0FC0120836F
S113065083E590E02BE0FC01208389E590E029E527
S113066030E0F90120812260FC0120830000DF9149
S10B0670CF910895F894FFCF27
S9030000FC
